:20000000F31000FFC7FFFFFFC7FFFFFFC7FFFFFFD00020F1CFB446D31F00D200A0D408C8E0
:20002000D504C9CACBCBC0CF7440C357C2C1565DE6F0C0D11C00465CE6E5D400F33A000139
:0900400008808080FF080808FF19
:20400000D3A443CF5F40C6000020D200A0D100019859E6FCC6BB0740C602D300A0DA1D4B36
:20402000D90247D501D60718D92086248EC6B30740975DE70D5DE7135DE71897969C5DE6FB
:20404000FBC697968C52525DE6F9C697969C525DE6FAC697969C565DE6FAC65DC60000BB22
:204060005D40C697C9CACB86CF7440C357C256C15DE6F1C6B35D40C8D10F001443C0D1F022
:20408000FF14D80343D10800968CD00F004352525DE6F5C6EFEBFFEFF9C7EFEFF7ABFFFF2A
:2040A000FFFFBFE7EFEBEBA7D0C3EFE7E7ABEFFFFFFF9FC3EFEBEB83D6FBEFF3CFC7EFFF28
:2040C000FFFFCF99EFFFC1EBE97BFFFBDF83EFFFFFFFEFBDEFFFEBC79767FFFBDFC783FFC8
:2040E000C3FFF7BDFFFFC1AF6B9BFFF7EFABEFFFFFFFFBDBEFFFEBC39F67FFEFF7FFEFEF20
:20410000FFEFFDE7FFFFFFEFFFFFFFFFFFFFFFF7FFFFFFFFEFC3C3EF81C381C3C3FFFFFF49
:20412000FFFFE3C3E7BDBDE7FDFDDFBDBDFFFF9FFFF9DDDDEFDFDFEBC1C1EFC3BDEFEFE7A3
:2041400081E7DFC6EFE7E7EDBFBDF7BD83FFFFF9FF9FE7D6EFFBBDC1BDBDFBBDBFFFFFE765
:2041600081E7FFC5C781C3EFC3C3FDC3C3EFEF9FFFF9F7FBFFFFFFFFFFFFFFFFFFFFF7FFBD
:20418000FFFFFFC7FFFFFFFFFFFFFFFFFFFFFFFFFFFFFFFFFFFFFFFFFFFFFFFFFFFFFFFF77
:2041A000FFFFFFFFE7E1E3E1C1C1E3BD83C7DDFD7DBDC7E1E7DDDDDDFDFDDDBDEFDFEDFD85
:2041C00039B9BBDDDBE1FEDDE1E1FE81EFDFF5FD55B5BBE1C3DDFEDDFDFDC6BDEFDFF1FD63
:2041E0006DADBBFDBDDDDDDDFDFDDDBDEFDDEDFD7D9DBBFDBDE1E3E1C1FDE3BD83E3DD81F9
:204200007DBDC7FDFFFFFFFFFFFFFFFFFFFFFFFFFFFFFFFFFFFFFFFFFFFFFFFFFFFFFFFFBC
:20422000FFFFFFFFC7E1C701BD7E7DBD7D81E3FDE3F7FFFFBBDDBBEFBDBD7DDBBBDFFBFB43
:20424000EFEBFFFFBBE1F7EFBDBD6DE7D7EFFBF7EFFFFFFFBBF5CFEFBDDB55E7EFF7FBEF80
:20426000EFFFFFFFBBEDBBEFBDDB39DBEFFBFBDFEFFFFFFFC7DDC7EFC3E77DBDEF81E3BF54
:20428000E3FF81FFBFFFFFFFFFFFFFFFFFFFFFFFFFFFFFFFFFFFFFFFFFFFFFFFFFFFFFFF18
:2042A000FFFFFFFFF7FFFDFFBFFFFFFFFBEFEFFBF7FFFFFFEFC3FDFFBFC3E7FFFBFFFFFB82
:2042C000F7FFFFFFFFBFC1C783BDF7D3E3EFE7DBF7998BC3FF83BDFBBD81E3CDDBEFEFEB5C
:2042E000F7A5B3BDFF9DB9FB9DFDF7DDDBEFEFF3F7BDBBBDFFA3C5C7A3C3F7D3DBEFEFCB3A
:20430000E7BDBBC3FFFFFFFFFFFFFFDFFFFFEFFFFFFFFFFFFFFFFFFFFFFFFFE3FFFFF1FFF1
:20432000FFFFFFFFFFFFFFFFFFFFFFFFFFFFFFC7EFE3FF81FFFFFFC7F7FFFFFFFFFFFFF7C7
:20434000EFEFFF81C5A3CBFBC3BBBD7EBDBDC3F3EFCFFF81B99DB3E7F7BBBD7EDBBBEFF355
:20436000EFCFB381BDBDFBDFF79BDBA5E7D7F7F7EFEFCD81C183FBE3E7A7E79999EFC3C7CB
:20438000EFE3FF81FDBFFFFFFFFFFFFFFFF7FFFFEFFFFFFFFDBFFFFFFFFFFFFFFFF9FFFF89
:2043A000FFFFFFFF101414582F3C1018185410000000603C1014147C2904100C3038100051
:2043C0000000306610003E1416840004207C100000001042100014386898000420387C0015
:2043E0003C00084200003E509464000810541000000004241000143C60980010080010107D
:204400000010021800000010000000000000000800000000103C3C107E3C7E3C3C00000012
:2044200000001C3C18424218020220424200006000062222102020143E3E103C4210101878
:204440007E18203910181812404208427C000006006018291004423E424204424000001876
:204460007E18003A387E3C103C3C023C3C10106000060804000000000000000000000800DE
:204480000000003800000000000000000000000000000000000000000000000000000000E4
:2044A00000000000181E1C1E3E3E1C427C3822028242381E18222222020222421020120296
:2044C000C6464422241E01221E1E017E10200A02AA4A441E3C2201220202394210200E0278
:2044E0009252440242222222020222421022120282624402421E1C1E3E021C427C1C227EA2
:2045000082423802000000000000000000000000000000000000000000000000000000009D
:2045200000000000381E38FE42818242827E1C021C080000442244104242822444200404D6
:2045400010140000441E0810424292182810040810000000440A30104224AA181008041059
:2045600010000000441244104224C6241004042010000000382238103C188242107E1C4045
:204580001C007E004000000000000000000000000000000000000000000000000000000041
:2045A0000000000008000200400000000410100408000000103C0200403C18000400000497
:2045C0000800000000403E387C42082C1C1018240866743C007C4204427E1C32241010147D
:2045E000085A4C4200624604620208222410100C08424442005C3A385C3C082C241010345F
:204600001842443C00000000000000200000100000000000000000000000001C00000E0066
:2046200000000000000000000000000000000038101C007E00000038080000000000000850
:204640001010007E3A5C34043C44428142423C0C1030007E46624C18084442812444100C82
:2046600010304C7E424204200864245A182808081010327E3E7C041C1858186666103C38CC
:20468000101C007E02400000000000000008000010000000024000000000000000060000CE
:1746A00000000000FFFFFFFFFFFFFFFFFFFFFFFFFFFFFFFFF30040E0
:00000001FF
