:20000000F31000FFC7FFFFFFC7FFFFFFC7FFFFFFD00070F1CF6D0020BC8851CF2D00CF9C09
:2000200000B48851D50121BD8851F31B00D32340B48851E703D3E748D200A0BA8D5120BC03
:200040008F51202ADA1F97E703D5804654D50711E6F209B28D519DBA8D51D52074E6E453F4
:20006000B68F5156BE8F51D44078E6D6C620D20040D162049859E6FCD401BC8141BC8241DA
:20008000BC8341BC8B41BCAD41BCCF41BC3044BC5044BC5244BC7344BC7444C6CFCF00D0F5
:2000A000DDFFCF8801D0DEFFCF8801D0DFFFCF8801D0FFFFCF8801D401CF8801D421CF8862
:2000C00001D422CF8801D423CF8801CFB201C6D32340D2E748B48851E706D3E748D2234052
:2000E000BB8B51BA8951D17D080E4684D1DDFF0E468CD180080E4684D1FEFF0E468CD11F4B
:20010000000E4684D17F080E468CD100000E4684D1A0080E468CB28B51B38B51D180084710
:20012000D520949E5DE6FBB28B51D15E0846B38B51D1DEFF47D520949E5DE6FBB28B51B325
:200140008B51D1200047D540848ED42242435DE6F7B28B51D11F0046B38B51D1FFFF47D571
:2001600040848ED42242435DE6F7B28B51B38951D440BC8F51D410919B5CE6FB5253B58F77
:20018000515DBD8F51E6EEC6B28B5142B38951D440BC8F51D410BC90519182419BB4905168
:2001A0005CB89051E6F35253B58F515DBD8F51E6E3C6B28B51B38951D440BC8F51D420BC33
:2001C000905187D40374E607D4019E56F3DC01D40474E605959FF3DC01259F56B490515CA0
:1101E000BC9051E6DD5253B48F515CBC8F51E6CDC604
:204000000000000000000000000000000000000000000000000000000000000000000000A0
:20402000000000000000000000000000000000000000000000000000000000000000000080
:20404000000000000000000000000000000000000000000000000000000000000000000060
:20406000000000000000000000000000000000000000000000000000000000000000000040
:00000001FF
